:020000040800F2
:100000006805002081020008E1020008E102000802
:10001000E1020008E1020008E1020008000000001F
:10002000000000000000000000000000E1020008E5
:10003000E102000800000000E1020008E1020008FF
:10004000E1020008E1020008E1020008E102000804
:10005000E1020008E1020008E1020008E1020008F4
:10006000E1020008E1020008E1020008E1020008E4
:10007000E1020008E1020008E1020008E1020008D4
:10008000E1020008E1020008E1020008E1020008C4
:10009000E1020008E1020008E1020008E1020008B4
:1000A000E1020008E1020008E1020008E1020008A4
:1000B000E1020008E1020008E1020008E102000894
:1000C000E1020008E1020008E1020008E102000884
:1000D000E1020008E1020008F5030008E10200085F
:1000E000E1020008E1020008E1020008000000004F
:1000F0000000000000000000000000000000000000
:1001000000000000000000005FF808F180B500AFBB
:10011000154A154B1B6843F0010313601249124B3B
:100120005A68124B13404B600F4A0F4B1B6823F069
:10013000847323F4803313600B4A0B4B1B6823F446
:1001400080231360084A084B5B6823F4FE03536066
:10015000054B4FF41F029A6000F00CF8044B4FF06F
:1001600000629A6000BF80BD001002400000FFF8EE
:1001700000ED00E080B500AF00F002F800BF80BDE8
:1001800080B483B000AF00237B6000233B603A4A19
:10019000394B1B6843F480331360374B1B6803F4FF
:1001A00000333B607B6801337B603B68002B03D1ED
:1001B0007B68B3F5A06FF0D12F4B1B6803F40033BD
:1001C000002B02D001233B6001E000233B603B6831
:1001D000012B4BD1294A294B1B6843F010031360B4
:1001E000264A264B1B6823F003031360234A234B44
:1001F0001B6843F0020313601F4A1F4B5B68536088
:100200001D4A1D4B5B6853601B4A1B4B5B6843F4E4
:1002100080635360184A184B5B6823F47C13536067
:10022000154A154B5B6843F4E8135360124A124BAE
:100230001B6843F08073136000BF0F4B1B6803F013
:100240000073002BF9D00C4A0B4B5B6823F00303BF
:100250005360094A084B5B6843F00203536000BFD8
:10026000054B5B6803F00C03082BF9D100BF0C377A
:10027000BD4680BC704700BF001002400020024015
:1002800080B582B000AF114B7B60114B3B6007E043
:100290003B681A1D3A607A68111D796012681A600D
:1002A0003B680C4A9342F3D30B480C494FF00002D1
:1002B0008842B8BF40F8042BFADBFFF727FF00F0B5
:1002C00049F800BF0837BD4680BD00BFBD06000825
:1002D0000000002000000020000000206801002035
:1002E00080B400AFFEE700BF80B582B000AF034628
:1002F000FB8000BF4021074800F030F90346002B87
:10030000F8D0FB881946034800F006F900BF08370B
:10031000BD4680BD0038014080B584B000AF786034
:100320000023FB600AE0FB687A6813441B789BB2E9
:100330001846FFF7D9FFFB680133FB60786800F0CF
:1003400083F90246FB689A42EDD200BF1037BD46E2
:1003500080BD00BF80B582B000AF0648FFF7DCFF6C
:1003600000237B6000F008F803469BB21846FFF7B5
:10037000BBFFF7E7A406000880B582B000AF00BF5E
:10038000184B1B889BB2002BFAD0174B1B889BB2D3
:100390005A1C91B2144A11801A46144B9B5CFB7193
:1003A000114B1B889BB2B3F5AF7F02D10E4B0022DD
:1003B0001A80002240F225510D4800F065F8094BE3
:1003C0001B889BB2013B9AB2064B1A80012240F275
:1003D0002551074800F058F8FB7918460837BD4604
:1003E00080BD00BF040000200200002008000020A3
:1003F0000044004098B500AF40F225511D4800F080
:10040000C9F80346012B33D11A4B1B889BB203F06A
:100410000F03002B29D1184B1B889BB25A1C91B299
:10042000154A11801C46134800F088F80346DAB2DA
:10043000124B1A55104B1B889BB2B3F5AF7F02D1FC
:100440000D4B00221A800E4B1B889BB201339BB2CE
:100450000B4A19461180B3F5AF7F09D1084B002232
:100460001A80084B01221A7002E0024800F066F878
:1004700000BF98BD003801400000002008000020A7
:10048000040000200600002080B487B000AF786030
:100490000B467B8013467B7000233B610023FB608F
:1004A0000023BB6000237B617B687B617B88DBB2C0
:1004B0005B09DBB23B617B8803F01F03FB60012219
:1004C000FB6802FA03F3BB603B69012B03D17B6934
:1004D0000C337B6109E03B69022B03D17B6910334C
:1004E0007B6102E07B6914337B617B78002B06D053
:1004F0007B697A691168BA680A431A6006E07B6909
:100500007A691168BA68D2430A401A6000BF1C3782
:10051000BD4680BC704700BF80B483B000AF786038
:100520000B467B807B88C3F308039AB27B689A8072
:1005300000BF0C37BD4680BC704700BF80B483B09D
:1005400000AF78607B689B889BB2C3F308039BB2C3
:1005500018460C37BD4680BC704700BF80B485B0DC
:1005600000AF78600B467B800023FB737B681B88A1
:100570009AB27B8813409BB2002B02D00123FB73FD
:1005800001E00023FB73FB7B18461437BD4680BC9B
:10059000704700BF80B487B000AF78600B467B80A7
:1005A0000023FB6000237B610023BB600023FB74FE
:1005B0007B88DBB25B09DBB2BB607B8803F01F0387
:1005C0007B6101227B6902FA03F37B61BB68012B2B
:1005D00007D17B689B899BB21A467B6913407B617C
:1005E00011E0BB68022B07D17B681B8A9BB21A46BD
:1005F0007B6913407B6106E07B689B8A9BB21A464D
:100600007B6913407B617B881B0A9BB2FB600122E4
:10061000FB6802FA03F3FB607B681B889BB21A46F7
:10062000FB681340FB607B69002B05D0FB68002B47
:1006300002D00123FB7401E00023FB74FB7C18460D
:100640001C37BD4680BC704720F0030110F003004A
:10065000C0F1000051F8043B00F1040C4FEACC0C4F
:100660006FF000021CBF22FA0CF213434FF0010C92
:100670004CEA0C2C4CEA0C4CA3EB0C0222EA0302D1
:1006800012EACC1204BF51F8043B0430F4D0C2F19A
:10069000000102EA0102B2FA82F2C2F11F0200EB8B
:1006A000D20070470A0D27312720746F206F6E2CFF
:0D06B000203020746F206F6666200A0D0058
:0400000508000000EF
:00000001FF
