:020000040800F2
:10000000E806002081020008E1020008E102000881
:10001000E1020008E1020008E1020008000000001F
:10002000000000000000000000000000E1020008E5
:10003000E102000800000000E1020008E1020008FF
:10004000E1020008E1020008E1020008E102000804
:10005000E1020008E1020008E1020008E1020008F4
:10006000E1020008E1020008E1020008E1020008E4
:10007000E1020008E1020008E1020008E1020008D4
:10008000E1020008E1020008E1020008E1020008C4
:10009000E1020008E1020008E1020008E1020008B4
:1000A000E1020008E1020008E1020008E1020008A4
:1000B000E1020008E1020008E1020008E102000894
:1000C000E1020008E1020008E1020008E102000884
:1000D000E102000809060008E1020008E102000848
:1000E000E1020008E1020008E1020008000000004F
:1000F0000000000000000000000000000000000000
:1001000000000000000000005FF808F180B500AFBB
:10011000154A154B1B6843F0010313601249124B3B
:100120005A68124B13404B600F4A0F4B1B6823F069
:10013000847323F4803313600B4A0B4B1B6823F446
:1001400080231360084A084B5B6823F4FE03536066
:10015000054B4FF41F029A6000F00CF8044B4FF06F
:1001600000629A6000BF80BD001002400000FFF8EE
:1001700000ED00E080B500AF00F002F800BF80BDE8
:1001800080B483B000AF00237B6000233B603A4A19
:10019000394B1B6843F480331360374B1B6803F4FF
:1001A00000333B607B6801337B603B68002B03D1ED
:1001B0007B68B3F5A06FF0D12F4B1B6803F40033BD
:1001C000002B02D001233B6001E000233B603B6831
:1001D000012B4BD1294A294B1B6843F010031360B4
:1001E000264A264B1B6823F003031360234A234B44
:1001F0001B6843F0020313601F4A1F4B5B68536088
:100200001D4A1D4B5B6853601B4A1B4B5B6843F4E4
:1002100080635360184A184B5B6823F47C13536067
:10022000154A154B5B6843F4E8135360124A124BAE
:100230001B6843F08073136000BF0F4B1B6803F013
:100240000073002BF9D00C4A0B4B5B6823F00303BF
:100250005360094A084B5B6843F00203536000BFD8
:10026000054B5B6803F00C03082BF9D100BF0C377A
:10027000BD4680BC704700BF001002400020024015
:1002800080B582B000AF114B7B60114B3B6007E043
:100290003B681A1D3A607A68111D796012681A600D
:1002A0003B680C4A9342F3D30B480C494FF00002D1
:1002B0008842B8BF40F8042BFADBFFF727FF00F0B5
:1002C00017FA00BF0837BD4680BD00BFF60C000816
:1002D000000000201400002014000020E80200208C
:1002E00080B400AFFEE700BF80B489B000AF786093
:1002F00039600023FB6100233B610023BB610023C5
:10030000FB6000237B610023BB603B68DB7803F06C
:100310000F03FB613B68DB7803F01003002B05D073
:100320003B689B781A46FB691343FB613B681B885B
:10033000DBB2002B44D07B681B687B610023BB6170
:1003400038E00122BB6902FA03F3FB603B681B88BB
:100350001A46FB6813403B613A69FB689A4226D112
:10036000BB699B00FB600F22FB6802FA03F3BB60D2
:10037000BB68DB437A6913407B61FA69FB6802FA68
:1003800003F37A6913437B613B68DB78282B05D143
:100390000122BB699A407B685A6108E03B68DB78C0
:1003A000482B04D10122BB699A407B681A61BB6962
:1003B0000133BB61BB69072BC3D97B687A691A60BB
:1003C0003B681B88FF2B46D97B685B687B610023F9
:1003D000BB613AE0BB690833012202FA03F3FB6018
:1003E0003B681B881A46FB6813403B613A69FB680F
:1003F0009A4227D1BB699B00FB600F22FB6802FA7F
:1004000003F3BB60BB68DB437A6913407B61FA6925
:10041000FB6802FA03F37A6913437B613B68DB787C
:10042000282B05D1BB69083301229A407B685A61A9
:100430003B68DB78482B05D1BB69083301229A4021
:100440007B681A61BB690133BB61BB69072BC1D9EA
:100450007B687A695A6000BF2437BD4680BC70470C
:1004600080B483B000AF78607B684FF6FF721A806B
:100470007B6802229A707B680422DA7000BF0C3716
:10048000BD4680BC704700BF80B483B000AF7860C9
:100490000B467B8013467B707B78002B03D07A88D9
:1004A0007B681A6102E07A887B685A6100BF0C376A
:1004B000BD4680BC704700BF80B483B000AF034628
:1004C000FB71084997F907305B09FA7902F01F02BE
:1004D000012000FA02F241F8232000BF0C37BD468C
:1004E00080BC704700E100E080B586B000AF01211C
:1004F000042000F0E7F907F114031846FFF7B0FFF6
:100500000223BB821023FB750323BB7507F1140381
:1005100019462048FFF7E8FE1823FB754FF40073D7
:10052000BB8207F1140319461A48FFF7DDFE0423C6
:10053000FB754FF48063BB8207F11403194615481D
:10054000FFF7D2FE01214FF4804000F0BBF94FF4D9
:1005500016537B6000233B8100237B810023BB81FA
:1005600000233B820C23FB813B1D19460A4800F007
:10057000C7F9012240F22551074800F09DFA0121F8
:10058000054800F079FA2520FFF796FF00BF1837DD
:10059000BD4680BD000801400038014080B582B0F2
:1005A00000AF0346FB8000BF4021074800F0EEFA91
:1005B0000346002BF8D0FB881946034800F0C4FA24
:1005C00000BF0837BD4680BD0038014080B584B00B
:1005D00000AF78600023FB600AE0FB687A68134490
:1005E0001B789BB21846FFF7D9FFFB680133FB600D
:1005F000786800F041FB0246FB689A42EDD200BFEA
:100600001037BD4680BD00BF98B500AF40F2255100
:10061000174800F0D7FA0346012B27D1144B1B884B
:100620009BB203F00F03002B1DD1124B1B889BB212
:100630001C460F4800F09AFA0346DAB20E4B1A55E0
:100640000C4B1B889BB201330C4A82FB0312D11165
:10065000DA178A1A4FF4AF7101FB02F29A1A92B2BA
:10066000044B1A8002E0024800F080FA00BF98BDF7
:1006700000380140140000202800002091739F5D85
:1006800080B582B000AF00BF154B1B889AB2154BE6
:100690001B889BB29A42F7D0114B1B889BB21A461B
:1006A000114B9B5CDBB2FB800D4B1B889BB2013373
:1006B0000E4A82FB0312D111DA178A1A4FF4AF7176
:1006C00001FB02F29A1A92B2054B1A80FB88184677
:1006D000FFF764FFFB8818460837BD4680BD00BFA2
:1006E00016000020140000202800002091739F5D58
:1006F00080B582B000AFFFF7F7FE1648FFF766FF40
:100700000023FB80FFF7BCFF03466F2B11D1FFF7DF
:10071000B7FF03466E2B03D10F4B00221A600BE08C
:10072000FFF7AEFF0346662B06D10B4B01221A6082
:1007300002E00A48FFF74AFF074B1B68002B14BF73
:1007400001230023DBB21A4602210548FFF79CFE75
:10075000D8E700BFD40C000824000020EC0C0008EF
:100760000008014080B487B000AF786000237B614F
:1007700000233B610023FB600023BB604C4B5B68A4
:1007800003F00C037B617B69042B07D0082B09D095
:10079000002B33D17B68474A1A6033E07B68454AB7
:1007A0001A602FE0424B5B6803F470133B61404BCF
:1007B0005B6803F48033FB603B699B0C02333B6155
:1007C000FB68002B06D13B693B4A02FB03F27B68C6
:1007D0001A6017E0364B5B6803F40033002B06D039
:1007E0003B69354A02FB03F27B681A600AE03B6909
:1007F000304A02FB03F27B681A6003E07B682D4AF3
:100800001A6000BF2A4B5B6803F0F0037B617B69D1
:100810001B097B61294A7B6913441B78DBB2BB60EF
:100820007B681A68BB68DA407B685A60204B5B685B
:1008300003F4E0637B617B691B0A7B611F4A7B6970
:1008400013441B78DBB2BB607B685A68BB68DA4034
:100850007B689A60164B5B6803F460537B617B692D
:10086000DB0A7B61154A7B6913441B78DBB2BB60F2
:100870007B685A68BB68DA407B68DA600C4B5B685F
:1008800003F440437B617B699B0B7B610C4A7B6972
:1008900013441B78DBB2BB607B68DA68BB68B2FBD1
:1008A000F3F27B681A6100BF1C37BD4680BC7047FD
:1008B0000010024000127A0000093D0000000020F4
:1008C0001000002080B483B000AF78600B46FB704E
:1008D000FB78002B06D00949084B9A697B681343C3
:1008E0008B6106E00549054B9A697B68DB43134041
:1008F0008B6100BF0C37BD4680BC704700100240C2
:1009000080B58CB000AF786039600023FB620023B3
:10091000BB6200237B6200233B620023FB617B6898
:10092000FB617B681B8A9BB2FB62FA6A4CF6FF7321
:100930001340FB623B68DB881A46FB6A1343FB6289
:10094000FB6A9AB27B681A827B689B899BB2FB62C6
:10095000FA6A4EF6F3131340FB623B689A883B68D1
:100960001B8913439AB23B685B8913439BB21A46B7
:10097000FB6A1343FB62FB6A9AB27B689A817B68CD
:100980009B8A9BB2FB62FA6A4FF6FF431340FB62FD
:100990003B689B891A46FB6A1343FB62FB6A9AB267
:1009A0007B689A8207F108031846FFF7DBFEFB69B4
:1009B0002F4A934202D17B69BB6201E03B69BB6273
:1009C0007B689B899BB29BB21BB2002B0CDABA6A84
:1009D00013469B0013449A001A443B681B685B0053
:1009E000B2FBF3F37B620BE0BA6A13469B0013443D
:1009F0009A001A443B681B689B00B2FBF3F37B62CE
:100A00007B6A1C4AA2FB03235B091B01FB62FB6A96
:100A10001B09642202FB03F37A6AD31A3B627B68E8
:100A20009B899BB29BB21BB2002B0CDA3B6ADB00AA
:100A30003233104AA2FB03235B0903F00703FA6A6F
:100A40001343FB620BE03B6A1B013233094AA2FBF2
:100A500003235B0903F00F03FA6A1343FB62FB6A8B
:100A60009AB27B681A8100BF3037BD4680BD00BF97
:100A7000003801401F85EB5180B483B000AF78602F
:100A80000B46FB70FB78002B08D07B689B899BB2E0
:100A900043F400539AB27B689A8107E07B689B8994
:100AA0009BB223F400539AB27B689A8100BF0C3743
:100AB000BD4680BC704700BF80B487B000AF78608F
:100AC0000B467B8013467B7000233B610023FB6059
:100AD0000023BB6000237B617B687B617B88DBB28A
:100AE0005B09DBB23B617B8803F01F03FB600122E3
:100AF000FB6802FA03F3BB603B69012B03D17B69FE
:100B00000C337B6109E03B69022B03D17B69103315
:100B10007B6102E07B6914337B617B78002B06D01C
:100B20007B697A691168BA680A431A6006E07B69D2
:100B30007A691168BA68D2430A401A6000BF1C374C
:100B4000BD4680BC704700BF80B483B000AF786002
:100B50000B467B807B88C3F308039AB27B689A803C
:100B600000BF0C37BD4680BC704700BF80B483B067
:100B700000AF78607B689B889BB2C3F308039BB28D
:100B800018460C37BD4680BC704700BF80B485B0A6
:100B900000AF78600B467B800023FB737B681B886B
:100BA0009AB27B8813409BB2002B02D00123FB73C7
:100BB00001E00023FB73FB7B18461437BD4680BC65
:100BC000704700BF80B487B000AF78600B467B8071
:100BD0000023FB6000237B610023BB600023FB74C8
:100BE0007B88DBB25B09DBB2BB607B8803F01F0351
:100BF0007B6101227B6902FA03F37B61BB68012BF5
:100C000007D17B689B899BB21A467B6913407B6145
:100C100011E0BB68022B07D17B681B8A9BB21A4686
:100C20007B6913407B6106E07B689B8A9BB21A4616
:100C30007B6913407B617B881B0A9BB2FB600122AE
:100C4000FB6802FA03F3FB607B681B889BB21A46C1
:100C5000FB681340FB607B69002B05D0FB68002B11
:100C600002D00123FB7401E00023FB74FB7C1846D7
:100C70001C37BD4680BC704720F0030110F0030014
:100C8000C0F1000051F8043B00F1040C4FEACC0C19
:100C90006FF000021CBF22FA0CF213434FF0010C5C
:100CA0004CEA0C2C4CEA0C4CA3EB0C0222EA03029B
:100CB00012EACC1204BF51F8043B0430F4D0C2F164
:100CC000000102EA0102B2FA82F2C2F11F0200EB55
:100CD000D20070470A6F6E20746F206F6E2C20EE6A
:100CE000206F66206F6666200A0D00000A0D4572AF
:060CF000726F720A0D0094
:100CF60000000000010203040102030406070809BC
:040D060002040608D5
:0400000508000000EF
:00000001FF
