:020000040800F2
:1000000018040020CD0800082D0900082D0900085B
:100010002D0900082D0900082D0900080000000026
:100020000000000000000000000000002D09000892
:100030002D090008000000002D0900082D09000806
:100040002D0900082D0900082D0900082D090008B8
:100050002D0900082D0900082D0900082D090008A8
:100060002D0900082D0900082D0900082D09000898
:100070002D0900082D0900082D0900082D09000888
:100080002D0900082D0900082D0900082D09000878
:100090002D0900082D0900082D0900082D09000868
:1000A0002D0900082D0900082D0900082D09000858
:1000B0002D0900082D0900082D0900082D09000848
:1000C0002D0900082D0900082D0900082D09000838
:1000D0002D0900082D0900082D0900082D09000828
:1000E0002D0900082D0900082D0900080000000056
:1000F0000000000000000000000000000000000000
:1001000000000000000000005FF808F180B485B036
:1001100000AF786039600023FB817B681B88FB811E
:100120007B682E4A934213D07B682D4A93420FD0AE
:100130007B68B3F1804F0BD07B682A4A934207D08B
:100140007B68294A934203D07B68284A934208D1AE
:10015000FB8923F07003FB813B685A88FB891343BA
:10016000FB817B68224A93420CD07B68214A9342F0
:1001700008D0FB8923F44073FB813B68DA88FB8954
:100180001343FB817B68FA891A803B689A887B68F5
:100190009A853B681A887B681A857B680F4A934268
:1001A0000FD07B680E4A93420BD07B68124A934271
:1001B00007D07B68114A934203D07B68104A934270
:1001C00004D13B681B7A9AB27B681A867B6801224D
:1001D0009A8200BF1437BD4680BC7047002C014096
:1001E000003401400004004000080040000C0040C2
:1001F0000010004000140040004001400044014055
:100200000048014080B485B000AF786039600023B9
:100210007B810023FB810023BB817B681B8C9BB20D
:1002200023F001039AB27B681A847B681B8CFB81E4
:100230007B689B88BB817B681B8B7B817B8923F0E0
:1002400070037B817B8923F003037B813B681A88E1
:100250007B8913437B81FB8923F00203FB813B688D
:100260001A89FB891343FB813B685A88FB89134336
:10027000FB817B68244A93420FD07B68234A9342D8
:100280000BD07B68224A934207D07B68214A934275
:1002900003D07B68204A934223D1FB8923F00803D3
:1002A000FB813B685A89FB891343FB81FB8923F05F
:1002B0000403FB813B689A88FB891343FB81BB895C
:1002C00023F48073BB81BB8923F40073BB813B683B
:1002D0009A89BB891343BB813B68DA89BB89134385
:1002E000BB817B68BA899A807B687A891A833B686C
:1002F000DA887B689A867B68FA891A8400BF14378B
:10030000BD4680BC704700BF002C01400034014056
:1003100000400140004401400048014080B485B0E5
:1003200000AF7860396000237B810023FB810023CC
:10033000BB817B681B8C9BB223F010039AB27B6855
:100340001A847B681B8CFB817B689B88BB817B68E4
:100350001B8B7B817B8923F4E0437B817B8923F4A6
:1003600040737B813B681B881B029AB27B891343D5
:100370007B81FB8923F02003FB813B681B891B01E8
:100380009AB2FB891343FB813B685B881B019AB2DD
:10039000FB891343FB817B68224A934203D07B682D
:1003A000214A93422BD1FB8923F08003FB813B68D8
:1003B0005B891B019AB2FB891343FB81FB8923F004
:1003C0004003FB813B689B881B019AB2FB89134366
:1003D000FB81BB8923F48063BB81BB8923F4006369
:1003E000BB813B689B899B009AB2BB891343BB814D
:1003F0003B68DB899B009AB2BB891343BB817B6856
:10040000BA899A807B687A891A833B68DA887B6824
:100410001A877B68FA891A8400BF1437BD4680BCEE
:10042000704700BF002C01400034014080B485B00B
:1004300000AF7860396000237B810023FB810023BB
:10044000BB817B681B8C9BB223F480739AB27B6860
:100450001A847B681B8CFB817B689B88BB817B68D3
:100460009B8B7B817B8923F070037B817B8923F0CD
:1004700003037B813B681A887B8913437B81FB895B
:1004800023F40073FB813B681B891B029AB2FB8932
:100490001343FB813B685B881B029AB2FB891343C1
:1004A000FB817B68224A934203D07B68214A9342B6
:1004B0002BD1FB8923F40063FB813B685B891B0222
:1004C0009AB2FB891343FB81FB8923F48063FB8190
:1004D0003B689B881B029AB2FB891343FB81BB8953
:1004E00023F48053BB81BB8923F40053BB813B6859
:1004F0009B891B019AB2BB891343BB813B68DB8993
:100500001B019AB2BB891343BB817B68BA899A806D
:100510007B687A899A833B68DA887B689A877B68EC
:10052000FA891A8400BF1437BD4680BC704700BFEB
:10053000002C01400034014080B485B000AF7860E9
:1005400039600023BB8100237B810023FB817B6812
:100550001B8C9BB223F480539AB27B681A847B680D
:100560001B8C7B817B689B88FB817B689B8BBB8121
:10057000BB8923F4E043BB81BB8923F44073BB8177
:100580003B681B881B029AB2BB891343BB817B89E2
:1005900023F400537B813B681B891B039AB27B8940
:1005A00013437B813B685B881B039AB27B891343AF
:1005B0007B817B68124A934203D07B68114A934245
:1005C0000AD1FB8923F48043FB813B689B899B0113
:1005D0009AB2FB891343FB817B68FA899A807B6816
:1005E000BA899A833B68DA887B68A3F840207B68E5
:1005F0007A891A8400BF1437BD4680BC704700BF9B
:10060000002C01400034014080B483B000AF78601A
:100610007B684FF6FF729A807B6800221A807B68A5
:100620000022DA807B6800225A807B6800221A72DE
:1006300000BF0C37BD4680BC704780B483B000AFAC
:1006400078600B46FB70FB78002B08D07B681B881A
:100650009BB243F001039AB27B681A8007E07B6883
:100660001B889BB223F001039AB27B681A8000BFFB
:100670000C37BD4680BC704780B485B000AF786051
:100680000B467B800023FB817B681B8BFB81FB89F6
:1006900023F00803FB81FA897B881343FB817B6885
:1006A000FA891A8300BF1437BD4680BC704780B4F6
:1006B00085B000AF78600B467B800023FB817B68B0
:1006C0001B8BFB81FB8923F40063FB817B881B026E
:1006D0009AB2FB891343FB817B68FA891A8300BFB6
:1006E0001437BD4680BC704780B485B000AF7860D9
:1006F0000B467B800023FB817B689B8BFB81FB8906
:1007000023F00803FB81FA897B881343FB817B6814
:10071000FA899A8300BF1437BD4680BC704780B405
:1007200085B000AF78600B467B800023FB817B683F
:100730009B8BFB81FB8923F40063FB817B881B027D
:100740009AB2FB891343FB817B68FA899A8300BFC5
:100750001437BD4680BC704780B500AF154B1B6891
:10076000144A43F001031360124B5A681149124BAB
:1007700013404B600F4B1B680E4A23F0847323F425
:10078000803313600B4B1B680A4A23F480231360E9
:10079000084B5B68074A23F4FE035360054B4FF494
:1007A0001F029A6000F00CF8044B4FF000629A6050
:1007B00000BF80BD001002400000FFF800ED00E027
:1007C00080B500AF00F002F800BF80BD80B483B0F8
:1007D00000AF00237B6000233B603A4B1B68394A23
:1007E00043F480331360374B1B6803F400333B60E2
:1007F0007B6801337B603B68002B03D17B68B3F5DA
:10080000A06FF0D12F4B1B6803F40033002B02D0F4
:1008100001233B6001E000233B603B68012B4BD18F
:10082000294B1B68284A43F010031360264B1B68B2
:10083000254A23F003031360234B1B68224A43F02D
:10084000020313601F4B1F4A5B6853601D4B1D4A18
:100850005B6853601B4B5B681A4A43F480635360C8
:10086000184B5B68174A23F47C135360154B5B6885
:10087000144A43F4E8135360124B1B68114A43F0C7
:100880008073136000BF0F4B1B6803F00073002BD5
:10089000F9D00C4B5B680B4A23F003035360094B00
:1008A0005B68084A43F00203536000BF054B5B6876
:1008B00003F00C03082BF9D100BF0C37BD4680BCF8
:1008C000704700BF001002400020024080B582B097
:1008D00000AF114B7B60114B3B6007E07A68131D42
:1008E0007B603B68191D396012681A603B680C4ACE
:1008F0009342F3D30B480C494FF000028842B8BF33
:1009000040F8042BFADBFFF727FF00F03BF900BFAC
:100910000837BD4680BD00BF840D000800000020E0
:1009200014000020140000201400002080B400AF48
:10093000FEE780B489B000AF786039600023FB61C6
:1009400000233B610023BB610023FB6000237B612C
:100950000023BB603B68DB7803F00F03FB613B685F
:10096000DB7803F01003002B05D03B689B781A4618
:10097000FB691343FB613B681B88DBB2002B44D04F
:100980007B681B687B610023BB6138E00122BB6987
:1009900002FA03F3FB603B681B881A46FB681340AE
:1009A0003B613A69FB689A4226D1BB699B00FB60B8
:1009B0000F22FB6802FA03F3BB60BB68DB437A6972
:1009C00013407B61FA69FB6802FA03F37A69134307
:1009D0007B613B68DB78282B05D10122BB699A40FB
:1009E0007B685A6108E03B68DB78482B04D1012220
:1009F000BB699A407B681A61BB690133BB61BB6903
:100A0000072BC3D97B687A691A603B681B88FF2B68
:100A100046D97B685B687B610023BB613AE0BB69B8
:100A20000833012202FA03F3FB603B681B881A4675
:100A3000FB6813403B613A69FB689A4227D1BB6966
:100A40009B00FB600F22FB6802FA03F3BB60BB68EC
:100A5000DB437A6913407B61FA69FB6802FA03F3AE
:100A60007A6913437B613B68DB78282B05D1BB692E
:100A7000083301229A407B685A613B68DB78482B37
:100A800005D1BB69083301229A407B681A61BB69B2
:100A90000133BB61BB69072BC1D97B687A695A6096
:100AA00000BF2437BD4680BC7047000080B58AB0C7
:100AB00000AFB9607B600346FB731346BB81BB8903
:100AC000BB821823FB750323BB7507F1140319467A
:100AD000B868FFF72EFF60233B8301237B83FB7BFA
:100AE000672B04D0722B08D0622B03D008E0FF23C1
:100AF000FB8305E0FF23FB8302E00123FB8300BFB0
:100B000000233B843B6B013B032B33D801A252F8FB
:100B100023F000BF250B0008390B00084D0B00081F
:100B2000610B000807F1180319467868FFF76AFBA4
:100B300008217868FFF7A0FD07F1180319467868C7
:100B4000FFF7ECFB08217868FFF7B1FD07F1180308
:100B500019467868FFF76AFC08217868FFF7C4FD3A
:100B600007F1180319467868FFF7E6FC0821786852
:100B7000FFF7D5FD01217868FFF75FFD00BF28373B
:100B8000BD4680BD80B58CB002AF01211D2000F0B4
:100B90005BF80121022000F075F84FF40053BB828E
:100BA0000423FB750323BB7507F114031946204882
:100BB000FFF7BFFE07F108031846FFF725FD0023E6
:100BC0007B811C4B1B681C4AA2FB03239B0C9BB222
:100BD000013B9BB23B81FF23BB8107F10803194610
:100BE0001648FFF793FA01230093144B402214494F
:100BF0006720FFF75BFF03230093104B012211498D
:100C00006220FFF753FF042300930C4B02220D498F
:100C10007220FFF74BFF1E233B7100237B710023E3
:100C2000BB710123FB713B1D184600F049F8FEE73C
:100C3000001001400000002083DE1B430004004040
:100C400000080140000C014080B483B000AF786020
:100C50000B46FB70FB78002B06D0094B9A690849BC
:100C60007B6813438B6106E0054B9A697B68DB4325
:100C7000034913408B6100BF0C37BD4680BC7047F1
:100C80000010024080B483B000AF78600B46FB7068
:100C9000FB78002B06D0094BDA6908497B681343BF
:100CA000CB6106E0054BDA697B68DB4303491340FF
:100CB000CB6100BF0C37BD4680BC704700100240BE
:100CC00080B487B000AF786000237B6100233B6174
:100CD0000F23FB607B68DB78002B3AD0274BDB6867
:100CE000DB431B0A03F007037B617B69C3F1040349
:100CF0003B61FA687B6922FA03F3FB607B685B78EF
:100D00001A463B6902FA03F37B617B689B781A46BB
:100D1000FB6813407A6913437B617B691B017B612C
:100D2000174A7B681B787969C9B213440A4683F86D
:100D300000237B681B7803F01F0311497A6812783F
:100D40005209D2B21046012202FA03F341F82030D0
:100D50000FE07B681B7803F01F0309497A6812785B
:100D60005209D2B2104601229A4000F1200341F804
:100D7000232000BF1C37BD4680BC704700ED00E05B
:040D800000E100E0AE
:100D840000A24A0400000000000000000102030465
:040D9400060708093D
:0400000508000000EF
:00000001FF
